:100000000C9461000C947E000C947E000C947E0095
:100010000C947E000C947E000C947E000C947E0068
:100020000C947E000C947E000C947E000C947E0058
:100030000C947E000C947E000C947E000C947E0048
:100040000C948A010C947E000C947E000C947E002B
:100050000C947E000C947E000C947E000C947E0028
:100060000C947E000C947E00000000002400270009
:100070002A0000000000250028002B0000000000DE
:1000800023002600290004040404040404040202DA
:100090000202020203030303030301020408102007
:1000A0004080010204081020010204081020000012
:1000B0000008000201000003040700000000000027
:1000C000000011241FBECFEFD8E0DEBFCDBF11E08E
:1000D000A0E0B1E0ECE8F5E002C005900D92AC3094
:1000E000B107D9F721E0ACE0B1E001C01D92A73122
:1000F000B207E1F70E94D4010C94C4020C940000F2
:1001000080E480937C0080917A00806480937A0000
:1001100080917A0086FDFCCF8091780090917900E3
:100120000895833081F028F4813099F08230A9F06D
:1001300008958730A9F08830C9F08430B1F48091F7
:1001400080008F7D03C0809180008F778093800036
:10015000089584B58F7784BD089584B58F7DFBCFD6
:100160008091B0008F778093B00008958091B000A7
:100170008F7DF9CFCF93DF93E5EBF0E08491E1EA57
:10018000F0E0D491EDE8F0E0C491CC23A1F081112E
:100190000E949100EC2FF0E0EE0FFF1FE458FF4F9C
:1001A000A591B491EC91ED2381E090E009F480E019
:1001B000DF91CF91089580E090E0FACF1F93CF9325
:1001C000DF93282F30E0F901E255FF4F8491F901C8
:1001D000E656FF4FD491F901EA57FF4FC491CC2363
:1001E000A9F0162F81110E949100EC2FF0E0EE0F84
:1001F000FF1FEE58FF4FA591B4918FB7F894EC9183
:10020000111108C0D095DE23DC938FBFDF91CF9111
:100210001F910895DE2BF8CFCF93DF9390E0FC0180
:10022000E656FF4F24918A579F4FFC018491882303
:10023000D1F090E0880F991FFC01E859FF4FA5917C
:10024000B491FC01EE58FF4FC591D49161110EC0DD
:100250009FB7F8948C91E22FE0958E238C932881A0
:10026000E223E8839FBFDF91CF9108958FB7F89481
:10027000EC91E22BEC938FBFF6CF61E083E00E941C
:10028000DE0060E083E00C94DE000F931F93CF93B9
:10029000DF93082F162FD42FC8E06D2F6170802FA9
:1002A0000E94DE00D69561E0812F0E94DE0060E0B2
:1002B000812F0E94DE00C15081F7DF91CF911F9105
:1002C0000F910895CF93C82F60E081E00E94DE0077
:1002D0000E943D0161E081E00E94DE008C2F6AE017
:1002E0000E948202C82FE92F990FFF0BEF5FFE4F8C
:1002F000408166E085E00E944501EC2FCC0FFF0BAA
:10030000EF5FFE4F408164E082E00E944501CF91A3
:100310000C943D011F920F920FB60F9211242F9350
:100320003F938F939F93AF93BF93809113019091CD
:100330001401A0911501B09116013091120123E032
:10034000230F2D3758F50196A11DB11D20931201E1
:100350008093130190931401A0931501B09316019B
:1003600080910E0190910F01A0911001B0911101A7
:100370000196A11DB11D80930E0190930F01A093D2
:100380001001B0931101BF91AF919F918F913F9157
:100390002F910F900FBE0F901F90189526E8230FF6
:1003A0000296A11DB11DD2CF789484B5826084BD20
:1003B00084B5816084BD85B5826085BD85B5816069
:1003C00085BD80916E00816080936E0010928100E7
:1003D00080918100826080938100809181008160A2
:1003E0008093810080918000816080938000809163
:1003F000B10084608093B1008091B00081608093EF
:10040000B00080917A00846080937A0080917A00B5
:10041000826080937A0080917A00816080937A0074
:1004200080917A00806880937A001092C10061E028
:1004300084E00E940C0161E086E00E940C0161E012
:1004400082E00E940C0161E085E00E940C0161E005
:1004500083E00E940C0161E081E00E940C0161E0F8
:1004600080E00E940C0161E081E00E94DE0060E01B
:100470008EE00E940C0160E087E00E940C0161E0C8
:1004800088E00E940C0184E1E82EF12C90E0C92E56
:1004900090E0D92E0E94800090930D0180930C0172
:1004A0000E94BA00892B41F50E948000C0910C0186
:1004B000D0910D019E01275E3F4F2817390758F054
:1004C0000E94800069978C179D0728F08091000199
:1004D0000E946201E5CF0E94BA00892B51F40E946C
:1004E0008000B7010E949002862F162F0E946201A1
:1004F000F2CF10930001D4CFC114D10459F20E945D
:100500000000C8CF87FB082E062687FD819567FD72
:1005100061950E94A4020EF4919507FC81950895BF
:1005200097FB072E16F4009407D077FD09D00E94A0
:10053000B00207FC05D03EF4909581959F4F089539
:10054000709561957F4F0895991B79E004C0991FBC
:10055000961708F0961B881F7A95C9F7809508951D
:10056000AA1BBB1B51E107C0AA1FBB1FA617B707D9
:1005700010F0A61BB70B881F991F5A95A9F78095F5
:0C0580009095BC01CD010895F894FFCFC8
:0C058C0019FC60DAF266B63EE0FEE60004
:00000001FF
