:100000000C945C000C9479000C9479000C947900A9
:100010000C9479000C9479000C9479000C9479007C
:100020000C9479000C9479000C9479000C9479006C
:100030000C9479000C9479000C9479000C9479005C
:100040000C941D010C9479000C9479000C947900A7
:100050000C9479000C9479000C9479000C9479003C
:100060000C9479000C947900000000002400270013
:100070002A0000000000250028002B0004040404CE
:100080000404040402020202020203030303030342
:10009000010204081020408001020408102001021F
:1000A00004081020000000080002010000030407FB
:1000B000000000000000000011241FBECFEFD8E0B8
:1000C000DEBFCDBF11E0A0E0B1E0E6EBF4E002C09E
:1000D00005900D92AA30B107D9F721E0AAE0B1E06E
:1000E00001C01D92A331B207E1F70E9467010C9491
:1000F00059020C94000090E0FC01EC55FF4F249154
:10010000FC01E057FF4F3491FC01E458FF4FE491AC
:10011000EE23C9F0222339F0233001F1A8F4213075
:1001200019F1223029F1F0E0EE0FFF1FEE58FF4FDA
:10013000A591B4918FB7F894EC91611126C03095D8
:100140003E233C938FBF08952730A9F02830C9F093
:10015000243049F7809180008F7D03C0809180001A
:100160008F7780938000DFCF84B58F7784BDDBCF1E
:1001700084B58F7DFBCF8091B0008F778093B000E6
:10018000D2CF8091B0008F7DF9CF3E2BDACFCF93C5
:10019000DF9390E0FC01E057FF4F249184589F4F7C
:1001A000FC0184918823D1F090E0880F991FFC0115
:1001B000E859FF4FA591B491FC01EE58FF4FC5914E
:1001C000D49161110EC09FB7F8948C91E22FE09505
:1001D0008E238C932881E223E8839FBFDF91CF9108
:1001E00008958FB7F894EC91E22BEC938FBFF6CF84
:1001F00061E083E00E947B0060E083E00C947B0080
:100200000F931F93CF93DF93082F162FD42FC8E09F
:100210006D2F6170802F0E947B00D69561E0812F49
:100220000E947B0060E0812F0E947B00C15081F71B
:10023000DF91CF911F910F9108951F920F920FB6EA
:100240000F9211242F933F938F939F93AF93BF935C
:1002500080910F0190911001A0911101B0911201B4
:1002600030910E0123E0230F2D3758F50196A11D83
:10027000B11D20930E0180930F0190931001A09364
:100280001101B093120180910A0190910B01A0918C
:100290000C01B0910D010196A11DB11D80930A01C1
:1002A00090930B01A0930C01B0930D01BF91AF91FE
:1002B0009F918F913F912F910F900FBE0F901F90A4
:1002C000189526E8230F0296A11DB11DD2CF789470
:1002D00084B5826084BD84B5816084BD85B582604B
:1002E00085BD85B5816085BD80916E0081608093FC
:1002F0006E00109281008091810082608093810065
:100300008091810081608093810080918000816074
:10031000809380008091B10084608093B1008091CF
:10032000B00081608093B00080917A0084608093F7
:100330007A0080917A00826080937A0080917A00BE
:10034000816080937A0080917A00806880937A003F
:100350001092C10061E084E00E94C70061E086E085
:100360000E94C70061E082E00E94C70061E085E072
:100370000E94C70061E083E00E94C70061E081E065
:100380000E94C70061E080E00E94C70061E081E058
:100390000E947B0060E08EE00E94C70060E087E082
:1003A0000E94C70061E088E00E94C70080E4F82E48
:1003B00004E110E0DAE0F0927C0080917A00806441
:1003C00080937A0080917A0086FDFCCF909178002E
:1003D00080917900892798278927B8010E942502F2
:1003E000C62F60E081E00E947B000E94F80061E07F
:1003F00081E00E947B008C2F6D2F0E941702C82F76
:10040000E92F990FFF0BE050FF4F408166E085E038
:100410000E940001EC2FCC0FFF0BE050FF4F4081FA
:1004200064E082E00E9400010E94F800C4CF87FBD4
:10043000082E062687FD819567FD61950E94390289
:100440000EF4919507FC8195089597FB072E16F4FD
:10045000009407D077FD09D00E94450207FC05D023
:100460003EF4909581959F4F0895709561957F4FCB
:100470000895991B79E004C0991F961708F0961B00
:10048000881F7A95C9F780950895AA1BBB1B51E177
:1004900007C0AA1FBB1FA617B70710F0A61BB70BF4
:1004A000881F991F5A95A9F780959095BC01CD0199
:0604B0000895F894FFCF4F
:0A04B600FC60DAF266B63EE0FEE6F6
:00000001FF
