:100000000C9462000C947F000C947F000C947F0091
:100010000C947F000C947F000C947F000C946D0373
:100020000C947F000C947F000C947F000C947F0054
:100030000C947F000C947F000C947F000C947F0044
:100040000C94C9030C947F000C947F000C947F00E7
:100050000C947F000C947F000C947F000C947F0024
:100060000C947F000C947F00000000002400270007
:100070002A0000000000250028002B0002000000DC
:1000800000230026002900040404040404040402DC
:100090000202020202030303030303010204081025
:1000A00020408001020408102001020408102000F2
:1000B0000000080002010000030407000000000027
:1000C0000000000011241FBECFEFD8E0DEBFCDBF7F
:1000D00011E0A0E0B1E0E6E4FAE002C005900D9284
:1000E000AC30B107D9F721E0ACE0B1E001C01D921E
:1000F000A832B207E1F70E9413040C9421050C9476
:10010000000080E480937C0080917A00806480937A
:100110007A0080917A0086FDFCCF809178009091E2
:1001200079000895833081F028F4813099F082308D
:10013000A9F008958730A9F08830C9F08430B1F46F
:10014000809180008F7D03C0809180008F778093A5
:100150008000089584B58F7784BD089584B58F7D20
:10016000FBCF8091B0008F778093B000089580918D
:10017000B0008F7DF9CFCF93DF93E6EBF0E0849171
:10018000E2EAF0E0D491EEE8F0E0C491CC23A1F0F3
:1001900081110E949200EC2FF0E0EE0FFF1FE35858
:1001A000FF4FA591B491EC91ED2381E090E009F42B
:1001B00080E0DF91CF91089580E090E0FACF1F9327
:1001C000CF93DF93282F30E0F901E155FF4F849161
:1001D000F901E556FF4FD491F901E957FF4FC4915A
:1001E000CC23A9F0162F81110E949200EC2FF0E091
:1001F000EE0FFF1FEE58FF4FA591B4918FB7F89403
:10020000EC91111108C0D095DE23DC938FBFDF91F4
:10021000CF911F910895DE2BF8CF909100018913A3
:100220000BC0ECE7F0E0E4919FEF90930001E13028
:1002300049F028F0E23061F060E00C94DF001092A9
:100240006E00FACF90916F009D7F90936F00F4CF76
:10025000909170009D7F9093700091E09093B0001A
:100260009091B100987F94609093B1001092B30088
:10027000E3CFCF93DF9390E0FC01E556FF4F24914D
:1002800089579F4FFC0184918823D1F090E0880F1B
:10029000991FFC01E859FF4FA591B491FC01EE585C
:1002A000FF4FC591D49161110EC09FB7F8948C9106
:1002B000E22FE0958E238C932881E223E8839FBF71
:1002C000DF91CF9108958FB7F894EC91E22BEC93E6
:1002D0008FBFF6CF3FB7F89480911D0190911E011A
:1002E000A0911F01B091200126B5A89B05C02F3F0A
:1002F00019F00196A11DB11D3FBFBA2FA92F982F4C
:100300008827BC01CD01620F711D811D911D42E046
:10031000660F771F881F991F4A95D1F708958F920E
:100320009F92AF92BF92CF92DF92EF92FF926B01BA
:100330007C010E946A014B015C01C114D104E104FB
:10034000F104B9F00E946A01681979098A099B09C8
:10035000683E73408105910580F321E0C21AD108FF
:10036000E108F10888EE880E83E0981EA11CB11CFC
:10037000E4CFFF90EF90DF90CF90BF90AF909F9031
:100380008F9008954F925F926F927F92AF92BF923B
:10039000CF92DF92EF92FF920F931F93CF93DF9351
:1003A000D82F44244A94542C320144E0A42E47E42C
:1003B000B42E5CE7C52E50E0D52E02E910E066EAC7
:1003C000E62E60E0F62E809100018B3029F5F601D3
:1003D000C491C7FDBCC061E08BE00E943901CC2311
:1003E00009F488C0C23009F099C08091B100887FBB
:1003F00085608093B1008DE88093B3004092240122
:100400005092250160922601709227018091700020
:100410008260809370009BC08F3F09F098C08BE092
:1004200080930001F601C491CF3F09F490C0C13020
:1004300019F150F0C23009F43CC0C7FD88C061E03A
:100440008BE00E943901CECF14BC15BC84B582600C
:1004500084BD85B5816085BDF8018491E82FF0E009
:10046000EE0FFF1FEE58FF4F85919491F701849195
:1004700080930F01C0E0AFCF1092800010928100F6
:1004800080918100886080938100809181008160EB
:1004900080938100F8018491E82FF0E0EE0FFF1FB8
:1004A000EE58FF4F85919491F701849180930E014E
:1004B00092CF1092B0001092B1008091B000826093
:1004C0008093B0008091B10081608093B100F80109
:1004D0008491E82FF0E0EE0FFF1FEE58FF4F85915B
:1004E00094919093220180932101F701849180934C
:1004F000230171CF85B5887F846085BD86E487BD83
:1005000040921401509215016092160170921701E9
:1005100080916E00826080936E0019C0C130C1F579
:1005200080918100887F816080938100B0928900F2
:10053000A092880040921001509211016092120125
:100540007092130180916F00826080936F0064E667
:1005500070E080E090E00E948F018BE00E940D012E
:1005600068EC70E080E090E00E948F01D15009F0CB
:100570002ACFDF91CF911F910F91FF90EF90DF90E5
:10058000CF90BF90AF907F906F905F904F90089505
:10059000C23021F0C111DBCF84E0B1CF84E02CCF99
:1005A00060E088E00E94DF0060E08AE00E94DF00F7
:1005B00060E089E00C94DF0061E083E00E94DF00EE
:1005C00060E083E00C94DF0060E081E00E94DF00E7
:1005D0000E94DC0261E081E00C94DF000F931F9326
:1005E000CF93DF93082F162FD42FC8E06D2F6170A3
:1005F000802F0E94DF00D69561E0812F0E94DF00EE
:1006000060E0812F0E94DF00C15081F7DF91CF9120
:100610001F910F910895CF93C82F0E94E4028C2F51
:100620006AE00E94DF04C82FE92F990FFF0BEE5FED
:10063000FE4F408166E085E00E94EE02EC2FCC0F79
:10064000FF0BEE5FFE4F408164E082E00E94EE020D
:10065000CF910C94DC02EF92FF921F93CF93DF9324
:10066000182F0E94810090930D0180930C0184E16A
:10067000E82EF12C0E94BB00892B21F50E948100FD
:10068000C0910C01D0910D019E01275E3F4F2817AC
:10069000390750F00E94810069978C179D0720F060
:1006A000812F0E940B03E6CF0E94BB00892B11F71C
:1006B0000E948100B7010E94ED04862F162F0E9430
:1006C0000B03F2CF68EC70E080E090E0DF91CF9117
:1006D0001F91FF90EF900C948F011F920F920FB615
:1006E0000F9211242F933F934F935F936F937F93B8
:1006F0008F939F93AF93BF93EF93FF9380912401C8
:1007000090912501A0912601B0912701892B8A2B78
:100710008B2BD1F190912301E0912101F0912201E5
:100720008081892780838091240190912501A09167
:100730002601B0912701181619061A061B069CF40B
:100740008091240190912501A0912601B09127016B
:100750000197A109B1098093240190932501A093E9
:100760002601B0932701FF91EF91BF91AF919F9127
:100770008F917F916F915F914F913F912F910F904A
:100780000FBE0F901F901895809100010E940D01DF
:10079000EACF1F920F920FB60F9211242F933F931F
:1007A0008F939F93AF93BF938091190190911A01FA
:1007B000A0911B01B0911C013091180123E0230F7F
:1007C0002D3758F50196A11DB11D20931801809376
:1007D000190190931A01A0931B01B0931C01809101
:1007E0001D0190911E01A0911F01B0912001019661
:1007F000A11DB11D80931D0190931E01A0931F01A7
:10080000B0932001BF91AF919F918F913F912F9114
:100810000F900FBE0F901F90189526E8230F029699
:10082000A11DB11DD2CF789484B5826084BD84B5FA
:10083000816084BD85B5826085BD85B5816085BDDB
:1008400080916E00816080936E0010928100809193
:10085000810082608093810080918100816080931B
:100860008100809180008160809380008091B10040
:1008700084608093B1008091B00081608093B0006B
:1008800080917A00846080937A0080917A008260FF
:1008900080937A0080917A00816080937A008091C1
:1008A0007A00806880937A001092C10061E084E051
:1008B0000E94390161E086E00E94390161E082E036
:1008C0000E94390161E085E00E94390161E083E026
:1008D0000E94390161E081E00E94390161E080E01D
:1008E0000E94390161E081E00E94DF0061E088E060
:1008F0000E94390161E08AE00E94390161E089E0EB
:100900000E94390160E08EE00E94390160E087E0DA
:100910000E943901C0E0D0E00E94D00261E088E08E
:100920000E94DF0089E10E942B030E94D00261E057
:1009300089E00E94DF0085E00E942B030E94D00224
:1009400061E08AE00E94DF00809101010E942B0398
:1009500082E090E00E94C2010E94E4020E94DC0258
:100960000E94D00260E673EE8FEF9FEF0E948F012E
:1009700081E090E00E94C2010E94E4020E94DC0239
:100980000E94D00260EE73E98FEF9FEF0E948F010B
:10099000809101018150809301018111D9CF83E0C1
:1009A00090E00E94C2016FE976E881E090E00E9449
:1009B0008F01209709F4B0CF0E940000ADCF87FBD4
:1009C000082E062687FD819567FD61950E94010529
:1009D0000EF4919507FC8195089597FB072E16F468
:1009E000009407D077FD09D00E940D0507FC05D0C3
:1009F0003EF4909581959F4F0895709561957F4F36
:100A00000895991B79E004C0991F961708F0961B6A
:100A1000881F7A95C9F780950895AA1BBB1B51E1E1
:100A200007C0AA1FBB1FA617B70710F0A61BB70B5E
:100A3000881F991F5A95A9F780959095BC01CD0103
:060A40000895F894FFCFB9
:0C0A4600FF04FC60DAF266B63EE0FEE65B
:00000001FF
