:100000000C9462000C947F000C947F000C947F0091
:100010000C947F000C947F000C947F000C94A3033D
:100020000C947F000C947F000C947F000C947F0054
:100030000C947F000C947F000C947F000C947F0044
:100040000C94FF030C947F000C947F000C947F00B1
:100050000C947F000C947F000C947F000C947F0024
:100060000C947F000C947F00000000002400270007
:100070002A0000000000250028002B0002000000DC
:1000800000230026002900040404040404040402DC
:100090000202020202030303030303010204081025
:1000A00020408001020408102001020408102000F2
:1000B0000000080002010000030407000000000027
:1000C0000000000011241FBECFEFD8E0DEBFCDBF7F
:1000D00011E0A0E0B1E0EEE7FAE002C005900D9279
:1000E000AE30B107D9F721E0AEE0B1E001C01D921A
:1000F000AB32B207E1F70E9449040C943D050C9421
:10010000000080E480937C0080917A00806480937A
:100110007A0080917A0086FDFCCF809178009091E2
:1001200079000895833081F028F4813099F082308D
:10013000A9F008958730A9F08830C9F08430B1F46F
:10014000809180008F7D03C0809180008F778093A5
:100150008000089584B58F7784BD089584B58F7D20
:10016000FBCF8091B0008F778093B000089580918D
:10017000B0008F7DF9CFCF93DF93E6EBF0E0849171
:10018000E2EAF0E0D491EEE8F0E0C491CC23A1F0F3
:1001900081110E949200EC2FF0E0EE0FFF1FE35858
:1001A000FF4FA591B491EC91ED2381E090E009F42B
:1001B00080E0DF91CF91089580E090E0FACF1F9327
:1001C000CF93DF93282F30E0F901E155FF4F849161
:1001D000F901E556FF4FD491F901E957FF4FC4915A
:1001E000CC23A9F0162F81110E949200EC2FF0E091
:1001F000EE0FFF1FEE58FF4FA591B4918FB7F89403
:10020000EC91111108C0D095DE23DC938FBFDF91F4
:10021000CF911F910895DE2BF8CF909100018913A3
:100220000BC0ECE7F0E0E4919FEF90930001E13028
:1002300049F028F0E23061F060E00C94DF001092A9
:100240006E00FACF90916F009D7F90936F00F4CF76
:10025000909170009D7F9093700091E09093B0001A
:100260009091B100987F94609093B1001092B30088
:10027000E3CFCF93DF9390E0FC01E556FF4F24914D
:1002800089579F4FFC0184918823D1F090E0880F1B
:10029000991FFC01E859FF4FA591B491FC01EE585C
:1002A000FF4FC591D49161110EC09FB7F8948C9106
:1002B000E22FE0958E238C932881E223E8839FBF71
:1002C000DF91CF9108958FB7F894EC91E22BEC93E6
:1002D0008FBFF6CF3FB7F89480911F019091200116
:1002E000A0912101B091220126B5A89B05C02F3F06
:1002F00019F00196A11DB11D3FBFBA2FA92F982F4C
:100300008827BC01CD01620F711D811D911D42E046
:10031000660F771F881F991F4A95D1F708958F920E
:100320009F92AF92BF92CF92DF92EF92FF924B01DA
:100330005C010E946A016B017C010E946A016C19D8
:100340007D098E099F09683E734081059105A8F3D8
:1003500021E0821A9108A108B10888EEC80E83E056
:10036000D81EE11CF11C81149104A104B10429F7E9
:10037000FF90EF90DF90CF90BF90AF909F908F90C5
:1003800008954F925F926F927F92AF92BF92CF92F9
:10039000DF92EF92FF920F931F93CF93DF93D82FAB
:1003A00044244A94542C320144E0A42E47E4B42E51
:1003B0005CE7C52E50E0D52E02E910E066EAE62E95
:1003C00060E0F62E809100018B3029F5F601C49192
:1003D000C7FDBCC061E08BE00E943901CC2309F469
:1003E00088C0C23009F099C08091B100887F8560D3
:1003F0008093B1008DE88093B30040922601509223
:10040000270160922801709229018091700082601A
:10041000809370009BC08F3F09F098C08BE0809361
:100420000001F601C491CF3F09F490C0C13019F129
:1004300050F0C23009F43CC0C7FD88C061E08BE0D9
:100440000E943901CECF14BC15BC84B5826084BD36
:1004500085B5816085BDF8018491E82FF0E0EE0F4D
:10046000FF1FEE58FF4F85919491F701849180937F
:100470001101C0E0AFCF10928000109281008091F6
:1004800081008860809381008091810081608093E9
:100490008100F8018491E82FF0E0EE0FFF1FEE5885
:1004A000FF4F85919491F70184918093100192CF31
:1004B0001092B0001092B1008091B00082608093E1
:1004C000B0008091B10081608093B100F801849107
:1004D000E82FF0E0EE0FFF1FEE58FF4F859194914B
:1004E0009093240180932301F70184918093250147
:1004F00071CF85B5887F846085BD86E487BD4092D5
:1005000016015092170160921801709219018091A2
:100510006E00826080936E0019C0C130C1F5809179
:100520008100887F816080938100B0928900A092D1
:10053000880040921201509213016092140170924F
:10054000150180916F00826080936F0064E670E017
:1005500080E090E00E948F018BE00E940D0168EC2A
:1005600070E080E090E00E948F01D15009F02ACF26
:10057000DF91CF911F910F91FF90EF90DF90CF907F
:10058000BF90AF907F906F905F904F900895C23072
:1005900021F0C111DBCF84E0B1CF84E02CCF60E04B
:1005A00088E00E94DF0060E08AE00E94DF0060E0F7
:1005B00089E00C94DF0061E083E00E94DF0060E0EE
:1005C00083E00C94DF0060E081E00E94DF000E9485
:1005D000DB0261E081E00C94DF000F931F93CF9367
:1005E000DF93082F162FD42FC8E06D2F6170802F56
:1005F0000E94DF00D69561E0812F0E94DF0060E05D
:10060000812F0E94DF00C15081F7DF91CF911F91B0
:100610000F910895CF93C82F0E94E3028C2F6AE0B8
:100620000E940905C82FE92FF0E0EC5FFE4F4081E2
:1006300066E085E00E94ED02EC2FF0E0EC5FFE4FFB
:10064000408164E082E00E94ED02CF910C94DB02D5
:100650000F931F93CF93DF93C82F0E94E3020E9452
:10066000DB020E94CF028CE3C89FE00111240CE35F
:1006700010E02097E9F00E94BB00892B89F0CE01A1
:10068000B8010E941505862F0E940A0368EE73E0E8
:1006900080E090E00E948F010E94E3020E94DB0252
:1006A00068EE73E080E090E00E948F012197E1CF37
:1006B000DF91CF911F910F910895EF92FF920F93C9
:1006C0001F93CF93DF938C010E94810090930F01C1
:1006D00080930E0184E1E82EF12C0E94BB00892B4F
:1006E00031F50E948100C0910E01D0910F019E0151
:1006F000275E3F4F2817390758F00E9481006997FD
:100700008C179D0728F0F80180810E940A03E5CF2D
:100710000E94BB00892B09F70E948100B7010E944B
:100720002905862FF80160830E940A03F1CF68EC47
:1007300070E080E090E0DF91CF911F910F91FF90EA
:10074000EF900C948F011F920F920FB60F9211240D
:100750002F933F934F935F936F937F938F939F93C9
:10076000AF93BF93EF93FF93809126019091270160
:10077000A0912801B0912901892B8A2B8B2BD1F1D3
:1007800090912501E0912301F09124018081892736
:1007900080838091260190912701A0912801B0913A
:1007A0002901181619061A061B069CF480912601C9
:1007B00090912701A0912801B09129010197A109E9
:1007C000B1098093260190932701A0932801B0934B
:1007D0002901FF91EF91BF91AF919F918F917F91EF
:1007E0006F915F914F913F912F910F900FBE0F909E
:1007F0001F901895809100010E940D01EACF1F9271
:100800000F920FB60F9211242F933F938F939F93C4
:10081000AF93BF9380911B0190911C01A0911D018A
:10082000B0911E0130911A0123E0230F2D3758F5A6
:100830000196A11DB11D20931A0180931B01909375
:100840001C01A0931D01B0931E0180911F01909186
:100850002001A0912101B09122010196A11DB11D9D
:1008600080931F0190932001A0932101B093220156
:10087000BF91AF919F918F913F912F910F900FBE9C
:100880000F901F90189526E8230F0296A11DB11D09
:10089000D2CF789484B5826084BD84B5816084BDF4
:1008A00085B5826085BD85B5816085BD80916E000E
:1008B000816080936E00109281008091810082603F
:1008C000809381008091810081608093810080917C
:1008D00080008160809380008091B100846080936B
:1008E000B1008091B00081608093B00080917A0067
:1008F000846080937A0080917A00826080937A008D
:1009000080917A00816080937A0080917A0080687B
:1009100080937A001092C10061E084E00E94390166
:1009200061E086E00E94390161E082E00E943901C5
:1009300061E085E00E94390161E083E00E943901B5
:1009400061E081E00E94390161E081E00E94DF0006
:1009500061E088E00E94390161E08AE00E9439018B
:1009600061E089E00E94390160E08EE00E94390177
:1009700060E087E00E94390100E010E00E94CF02B1
:1009800061E088E00E94DF0083E091E00E945D0367
:100990000E94CF0261E089E00E94DF0082E091E0E6
:1009A0000E945D030E94CF0261E08AE00E94DF00A6
:1009B00081E091E00E945D0380910101811103C0FB
:1009C00081E0809301018091010180932A01C0910F
:1009D0002A01C150C0932A0182E090E00E94C10127
:1009E000809103010E94280381E090E00E94C101F0
:1009F000809102010E942803C111E9CF83E090E0B9
:100A00000E94C1010115110509F4B8CF0E94000030
:100A1000B5CF991B79E004C0991F961708F0961B73
:100A2000881F7A95C9F780950895AA1BBB1B51E1D1
:100A300007C0AA1FBB1FA617B70710F0A61BB70B4E
:100A4000881F991F5A95A9F780959095BC01CD01F3
:100A5000089597FB072E16F4009407D077FD09D070
:100A60000E94150507FC05D03EF4909581959F4F97
:0E0A70000895709561957F4F0895F894FFCF1B
:0E0A7E00FF040519FC60DAF266B63EE0FEE603
:00000001FF
